:020000040800F2
:10000000C806002055020008CD290008DD28000898
:10001000C9290008CD2300088F2C0008000000002B
:10002000000000000000000000000000D3290008CC
:10003000D123000800000000D1290008D5290008BC
:100040006F0200086F0200086F0200086F020008CC
:100050006F0200086F0200086F0200086F020008BC
:100060006F0200086F0200086F0200086F020008AC
:100070006F0200086F0200086F0200086F0200089C
:100080006F0200086F0200086F0200086F0200088C
:100090006F0200086F0200086F0200086F0200087C
:1000A0006F0200086F0200086F0200086F0200086C
:1000B0006F0200086F0200086F0200086F0200085C
:1000C0006F0200086F0200086F0200086F0200084C
:1000D0006F0200086F0200086F0200086F0200083C
:1000E0006F0200086F0200086F0200086F0200082C
:1000F0006F0200086F0200086F0200086F0200081C
:100100006F0200086F0200086F0200086F0200080B
:100110006F0200086F0200086F0200086F020008FB
:100120006F0200086F0200086F0200086F020008EB
:100130006F0200086F0200086F0200086F020008DB
:100140006F0200086F0200086F0200086F020008CB
:100150006F0200086F0200086F0200086F020008BB
:100160006F0200086F0200086F0200086F020008AB
:100170006F0200086F0200086F0200080000000014
:100180006F0200086F02000800F002F800F052F859
:100190000AA090E8000C82448344AAF10107DA45E2
:1001A00001D100F047F8AFF2090EBAE80F0013F0E2
:1001B000010F18BFFB1A43F00103184780360000F7
:1001C000A0360000103A24BF78C878C1FAD8520788
:1001D00024BF30C830C144BF04680C6070470000C1
:1001E0000023002400250026103A28BF78C1FBD840
:1001F000520728BF30C148BF0B607047662903F023
:100200004782732900F05984002070471FB503F01E
:1002100032FA00F009FF04000020002102F0B2FFD2
:10022000401C60600020002102F096FFE0601FBDCE
:1002300010B510BD01F0BEF91146FFF7E7FF02F05F
:100240003DFF01F01BFC03B4FFF7F2FF03BC01F01C
:1002500081FC00000948804709480047FEE7FEE7A7
:10026000FEE7FEE7FEE7FEE7FEE7FEE7FEE7FEE766
:1002700004480549054A064B70470000FD2900085F
:1002800089010008C8000020C8060020C80200201C
:10029000C802002053EA020C00F069802DE9F04BFF
:1002A0004FF00006002B1FBFB3FA83F503FA05F4E5
:1002B00024FA05F65E4012BF1643B2FA82F502FA3E
:1002C00005F4C5F120051EBF22FA05FC44EA0C0422
:1002D000203556EA044C4FEA144418BF641C4FF012
:1002E00000084FF00009904271EB030C39D300294C
:1002F00019BFB1FA81F701FA07F6B0FA80F700FAF0
:1003000007F6C7F120071EBF20FA07FC46EA0C06D5
:100310002037B6FBF4FCA7EB0507103F07F01F0BD7
:10032000CBF120060CFA0BFB2CFA06F644BFB346C1
:100330000026202FA4BF5E464FF0000B5BEA060CA0
:1003400008BF4FF0010B19EB0B09ABFB027C48EB2C
:100350000608C01B06FB02CC0BFB03CC71EB0C01A7
:10036000C1E70B46024641464846BDE8F08B13B54F
:100370004FF000004FF00001AFF30080BDE81C40DB
:10038000704700000FB41CB5074B06AA7B446946B2
:100390000090059800F067FB0020694600F076FBAE
:1003A0001CBC5DF814FB0000FD0600002DE9F041C7
:1003B0000E460446002020622046E168884730B39C
:1003C000252805D0D4E901219047206A401CF2E796
:1003D000E168204600278847050018D0A5F14100B4
:1003E000192802D820354FF40067324629462046A6
:1003F0002760FFF703FF40B1012804D0F61D26F067
:1004000007060836D8E7361DD6E72846DAE7206A19
:10041000BDE8F08170B50C460546012A05D0287864
:10042000800600D5EA69002302E0012305E05B1C99
:10043000934202D2E05C0028F9D1A869E618C01AFC
:10044000A861286A184428622846AFF3008004E0B7
:10045000D5E9012114F8010B9047B442F8D328469E
:10046000AFF3008070BD00000FB400B58DB010A9CF
:10047000099000910B904FF0FF300A9000200C90F3
:10048000064878440690064878446A4607900F99D3
:1004900009A800F099FD0DB05DF814FB630B000096
:1004A0007B0B00002DE9FF5F4FF0000899461446D2
:1004B00046469169D2E901A7DDF838B0019888472E
:1004C000054659EA0B0005D009E0A1690198761CA0
:1004D00088470546216A284688470028F5D1681CC8
:1004E00003D05FEACA7005D015E04FF0FF3004B0CA
:1004F000BDE8F09F2068011D2160D0F800800AE06F
:100500005FEACA7001D108F8015BA169761C019805
:100510007F1E88470546002F1ADD681C18D0B9F1E8
:10052000000F0DD0E81705EBD060421120F01F003E
:1005300059F822102A1A012090400142E0D107E028
:10054000BBF1000FDCD12846216A88470028D7D0AC
:10055000E16901988847BBF1000F07D1002E05DD46
:100560005FEACA7002D1002188F80010A068B84282
:1005700003DDBBF1000F03D017B16FF00100B6E748
:100580003046B4E710B5203AC0F00B80B1E81850FF
:10059000203AA0E81850B1E81850A0E81850BFF46D
:1005A000F5AF5FEA027C24BFB1E81850A0E818500C
:1005B00044BF18C918C0BDE810405FEA827C24BF60
:1005C00051F8043B40F8043B08BF7047D20728BFEE
:1005D00031F8023B48BF11F8012B28BF20F8023B3D
:1005E00048BF00F8012B70474FF0000200B51346DA
:1005F00094469646203922BFA0E80C50A0E80C5043
:10060000B1F12001BFF4F7AF090728BFA0E80C50F3
:1006100048BF0CC05DF804EB890028BF40F8042BEC
:1006200008BF704748BF20F8022B11F0804F18BF59
:1006300000F8012B704770477047704770472DE9ED
:10064000FF4F0C461E464FF0FF378BB0D2E900013A
:10065000DDF860800A908A46C1F30A5505B93D4627
:10066000002108464FF00000BAF1000F00F44000EE
:1006700005DA00EB80004FF4400101EA50004FEA38
:100680009059B9F1010F00DDB9460A9850EA4A00C5
:100690000ED044F61050A5F2FF3545432F14B8F1A3
:1006A000000F1ED07542291E1EDDC9F100021CE09C
:1006B000B8F1010F4FF0000001D0302103E0F24308
:1006C00005E02154401CB042FBDB304600220021F3
:1006D00021540B99C1F80880C1E900200FB0BDE892
:1006E000F08FBD1B6D1CDEE74A4600DA694206A8A2
:1006F00000F0EAFE06AB93E8070003AB83E80700CF
:1007000050460A9901F02DFA8DE80700A0F5005037
:100710001F3800900398002D0ADD42F21F014A465F
:100720000844002303A90390684601F0D9FC09E0BE
:10073000A0F500504A461F38002303A903906846DD
:1007400001F0F8FC8DE807000004000C03D04FF026
:10075000FF30410800E01046B8F1000F03D000223E
:10076000009215461EE0751E05D400F065FC30327F
:1007700062556D1EF9D5B3460122084302D000220E
:100780007F1C04E02078302801D100227F1E002A3F
:10079000099784D01DE0112D07DA00F04DFC3032AE
:1007A00062556D1C50EA0102F5D1084302D0009851
:1007B000C8B10EE00021681E05E0235C625C635452
:1007C0002254401E491C8142F7DBAB46A81B401E49
:1007D0000990002004F80B000B98099AC0F80880D3
:1007E000C0E9002B7AE711264FF0000857E72DE902
:1007F000F04F88460446D21D22F0070191B0D1E99E
:100800000001CDE90A0102F044FA02460B98C00F3C
:1008100001D02D2007E02068810701D52B2002E0C0
:10082000202101EAC000032A099001D0072A05DB34
:1008300003464146204600F04DFC0BE1207880063F
:1008400001D5E06900E00620B8F1650F814606D0C9
:10085000B8F1660F18D0B8F1670F70D131E0002001
:10086000B9F1110F009001DB112301E009F101033F
:100870000AAA01A90CA8FFF7E2FEDDE90C70002628
:1008800009F10105834647E001204B4600904FF0F7
:1008900000470AAA01A90CA8FFF7D1FEDDE90DB0B7
:1008A0000C995D46002610B909F101000D18B9EB4D
:1008B000050003D4C0F1FF3609F10105A5EB0900DD
:1008C0002BE0B9F1010F01DA4FF001090020B9F175
:1008D000110F0090484601DD112300E003460AAAEB
:1008E00001A90CA8FFF7ABFEDDE90C704D46002610
:1008F0008346207800070AD4AB4500DA5D4601A89C
:10090000012D04DD411911F8011C302907D04F4594
:1009100002DA17F1040F04DA012082460FE06D1E9F
:10092000EEE7002F02DCED1B3E4403E0781CA842FA
:1009300000DD7D1CB81B00F1010A4FF00047207854
:10094000000703D4AA4501DB4FF0FF3A0021B7F1BD
:10095000004F0DF143088DF8431024D002202B23C3
:10096000002F01DA7F422D230A21021EA0F101008F
:1009700000DC5FB197FBF1FC97FBF1F201FB1C7C03
:1009800017460CF1300C08F801CDEEE7A8F1010094
:1009900003702188090501D5452100E06521A0F1FA
:1009A000010800F8011C09980FA9A1EB0807FF1D19
:1009B00000B10120411901EBEA70A1693844081A1D
:1009C000401EA0612078C00602D42046AFF300800C
:1009D000099828B1D4E901219047206A401C20627F
:1009E0002078C00622D52046AFF300801EE0002EFE
:1009F00004DBB34502DD01A8805D00E03020D4E9CE
:100A000001219047206A401C2062761CAAF1010057
:100A10005FEA000A0AD100F007FBC0680168405C89
:100A2000D4E901219047206A401C2062281EA5F1CC
:100A30000105DCDC07E0D4E9012118F8010B90473F
:100A4000206A401C2062381EA7F10107F3DC204613
:100A5000AFF30080032011B041E6000001694A1C99
:100A600002610878704700B58FB0CDE901310021EF
:100A7000059105497944CDE9031011466846FFF711
:100A800095FC0FB000BD0000E5FFFFFF0A6802F80B
:100A9000010B0A60704710B5436913B1AFF30080D2
:100AA00001E0FFF7B7FC012010BD127800F124012E
:100AB0000A7000224A700122EDE711684FF0FF3200
:100AC000E9E700002DE9FF4F06468BB00878FF28C4
:100AD00006D0491C2D2805D000244FF0000908E05D
:100AE00000200CE00124F8E709EB8903491C00EB26
:100AF00043090878FF28F7D114B1C9F100008146F5
:100B0000107800252C46AA4629462D2801D02B28EE
:100B100004D1521C2D2813D0002082468B46107819
:100B2000FF280FD04FF0000C0A21521CA5FB0178C2
:100B300004FB018105FB0C11C5194BEB0104EEE729
:100B40000120EAE7002108464FF00000BAF1000F4B
:100B500002D000EB80004008C0F38157012F01DD77
:100B60004FF0FF370E9955EA040009EB01080BD04E
:100B70004FF0020918F5FA7F16DA4FEACA70002F13
:100B8000706008DD012007E04FEACA70C6E900B0D6
:100B90000FB0BDE8F08F0020306000F049FAC0F8D7
:100BA00000901821084616E0B8F5FA7F18DD002FEE
:100BB00002DAF748784401E0F6487844D0E90010BA
:100BC000C6E9001040EACA70706000F031FAC0F85F
:100BD0000090142108460FB0BDE8F04F02F055BD5B
:100BE000002108464FF00000B8F10001099002DA38
:100BF000C7F1000200E03A4601DAC8F1000106A898
:100C000000F062FC06AB93E8070003AB83E8070043
:100C100044F23E005BEA04010090584604D144F2DD
:100C20001E012C465D460091210C0904014306D1AA
:100C30000099240444EA15442D041039009104F06D
:100C40007F41014306D10099240244EA15642D0234
:100C50000839009104F07041014306D10099240144
:100C600044EA15742D01091F009104F0404101432D
:100C700006D10099A40044EA9574AD00891E009144
:100C800004F00041084304D100986D196441401EEE
:100C900000904FF001033A466846B8F1000FCDE9E5
:100CA000014503A902DD01F05AFA01E001F02DFA35
:100CB000BAF1000F04460D4601D084F00044002133
:100CC00008464FF00000099940F2FF77484010F0C5
:100CD0000C0F07D124F00040284303D0C4F30A507E
:100CE000B84212D100F0A4F9C0F80090C4F30A5041
:100CF000B8420AD1A8487844D0E90010C6E90010EB
:100D000004F000410843706042E7C6E900543FE741
:100D10002DE9FF4F1F464FF0000A4FF0FF384546C0
:100D200091B0D7E90146CDF83CA000F07DF9C0684C
:100D30000168405C1090B96912986D1C8847396A47
:100D4000814688470028F6D1B9F1FF3F0AD0002E2E
:100D500024F4D06411DDB9F12B0F08D0B9F12D0FB7
:100D60000BD102E0404615B013E744F48064B96942
:100D700012986D1C8847761E8146600504A901D52E
:100D80002D2000E02B20002E01F1010B0DF1300889
:100D90008DF810003FDDB9F1690F08D0B9F1490FA6
:100DA00005D0B9F16E0F02D0B9F14E0F1CD13B4600
:100DB00001A8009580E85002DDE912126FF00200F0
:100DC00002F0CCFCC11CCED10EE0B96912986D1CAA
:100DD000884781461398761E44F4007405600F9886
:100DE000401C002E0F9016DDB9F1300FEDD0B9F197
:100DF000780F02D0B9F1580F0DD10F9801280AD100
:100E00003B46CDE90054DDE91212001F029602F0C4
:100E1000A3FCC11CA7D1109989453ED144F08004A0
:100E200006E01399681CAAF1010A44F400740860F2
:100E3000B9696D1C1298761E884730288146F0D01B
:100E40002BE01099894505D1200603D4761E44F085
:100E5000800418E0484602F06AF808B3761E0DF1E7
:100E600023018B4544F4007408D2A9F130000BF83B
:100E7000010B200607D5AAF1010003E0200602D4E9
:100E80000AF101008246A00502D51399681C08608A
:100E9000B96912986D1C88478146002ED1DC53E059
:100EA000002E51DDB9F1650F02D0B9F1450F4BD1DC
:100EB000A00549D5B9696D1C1298761E24F44074BA
:100EC0008847002E81460CDD2B2804D0B9F12D0F68
:100ED00007D144F48074B96912986D1C8847761E56
:100EE0008146E00501D52D2100E02B2108F8011BEA
:100EF000CDF8008021E0761E0DF13901884544F4DB
:100F000000740CD2A9F1300010F0FF0088F8000046
:100F100002D10099884509D908F1010806E0E005E9
:100F200001D51E4801E042F20F708246B96912985D
:100F30006D1C8847814613980560002E04DD4846E5
:100F400001F0F5FF0028D6D1F96912988847FF20F3
:100F500053468BF8000088F8000000200A900B90A0
:100F600004AA0CA90AA8FFF7ADFDA00502D46FF0F2
:100F70000100F8E614F0240F12D0E0071CD1386805
:100F8000DDE90A12031D3B600068C0E9001213E0AE
:100F9000AC2C00009E2C0000622B0000F1D8FFFF5B
:100FA0000AA9684601F0B0FFE00705D13868009A49
:100FB000011D3960006802602846D4E602681144C9
:100FC0001378016018467047D16005497944516132
:100FD00004497944116200211161114600F0BAB848
:100FE000EDFFFFFFED000000426842B1016811F81B
:100FF000013B23B1521EC0E900121846704701217F
:10100000C160881E704742685AB1C368016843B91D
:1010100083688B4205D0491E521CC0E90012002093
:1010200070474FF0FF307047004870478400002041
:10103000004870476400002030B5B0F10A024FEA62
:10104000900E71F100034EEA817EB0EB0E0061EB71
:1010500091014FEA101E4EEA017E10EB0E0041EBAB
:1010600011114FEA102E4EEA016E10EB0E0041EB0B
:1010700011214FEA104E4EEA014E10EB0E0041EBEB
:101080001141401841F100014FEAD00040EA41709F
:101090004FEAD10110EB80054FEA810444EA9074D5
:1010A00044EB01046D1944EB0404521BA3414FF0BF
:1010B000000348BF0A3200D530BD401C41F1000199
:1010C00030BD10B5044600F09BFA0068005D00F0EA
:1010D000010010BD2DE9F0411F46044603260168BA
:1010E000072A01F4006004DB08B116A505E016A587
:1010F00003E008B115A500E015A521F0100020605F
:10110000A069C01EA0610FB1401EA0612046AFF3D0
:1011100000804FB1D4E9012138469047206A401C35
:101120002062C01C206206E0206AFAE7D4E90121AF
:1011300015F8010B9047761EF8D22046AFF30080D9
:10114000BDE8F0814E414E006E616E00494E460092
:10115000696E66002DE9F34F4FF0000A0C465646C3
:101160008DB001200C9001F10C000B9062690B987E
:1011700001219047051E2DD0252D2CD0216A8847AE
:10118000C0B162690B9801219047216A8847002805
:10119000F7D16269411E0B98904700E0761CA16967
:1011A0000D988847216A88470028F7D1E1690D9892
:1011B0008847DBE7A1690D988847A842074601D117
:1011C000761CD3E7E1690D9888477F1C02D1BAF1FC
:1011D000000F6FD06CE162690B9800273D463946DD
:1011E00090472A2804D162690B9801219047012574
:1011F000DFF8D08262690B9801219047A0F130019D
:101200000A290AD24745E5DC07EB870100EB4107D5
:10121000303FDFD445F01005ECE7E90601D46FF06C
:1012200000476C280AD04C2814D0682815D06A28AA
:101230000DD074281CD07A281AD01DE062690B9852
:10124000012190476C2802D045F0040514E045F0D8
:1012500002050DE045F020050AE062690B980121C6
:101260009047682802D045F0080505E045F4006580
:1012700062690B9801219047C4E9015765283DD068
:1012800019DC58287AD00CDC452837D004DC252816
:1012900026D041289ED131E046282FD0472899D129
:1012A0002CE05B2877D0612828D063287CD0642884
:1012B00023D15AE0F7E06F2848D008DC66281DD01B
:1012C00067281BD0692821D06E2816D127E0702806
:1012D00045D0732868D0752847D078280DD14DE0C7
:1012E000A1690D988847252805463FF469AFE16953
:1012F0000D9888476D1C3FF46AAFD9E00D992346DD
:101300006A466FF0010002F025FAC6E045F04000A1
:1013100023464FF000026060A80736D43EE0E8079D
:101320007FF447AF2068011D21600068290501D5C1
:1013300006701BE7290701D5068017E7A90703D523
:10134000F117C0E9006111E706600FE745F04000C2
:1013500023464FF008026060A80716D41EE040F64E
:101360000E0125EA0100606016E045F040002346CA
:101370004FF00A026060A80707D40FE045F0400074
:101380006060A80708D5234610220D996FF0010070
:10139000AFF3008081E007E0102223460D996FF043
:1013A0000100AFF3008078E04FF0000963284F465A
:1013B000C8464B46CB4602D05B2807D039E020799F
:1013C000C00601D40120A060012732E06269D4F890
:1013D0000CB00B98012190475E2807D14FF001090E
:1013E00049466269D4F80CB00B989047216939B925
:1013F00000210A4603AB43F82120491C0829FADBE7
:10140000D8B3216949B308F1010862690B98012139
:1014100090475D28F4D1B9F1000F09D0002003A94D
:1014200051F82020D24341F82020401C0828F7DB47
:1014300003AB2069002820794FEA40701ED05B463C
:101440002246CDF80080CDE901970D9900286FF074
:10145000010020DAAFF300801FE0C11703AA00EB00
:10146000D1614B1121F01F0102EB8302411A136875
:101470000120884003431360C7E719E00D99224615
:1014800000286FF00100009702DAAFF3008004E05B
:10149000FFF708F801E0AFF3008000280ADA401CEB
:1014A00006D10C9820B14FF0FF300FB0BDE8F08F9F
:1014B0005046FAE7E90701D10AF1010A0644002083
:1014C0000C9053E6CCCCCC0C2DE9F0478146164667
:1014D0008AB0354878440DC88DE80D00324878440C
:1014E000801C03AC0DC884E80D0041F69B30084415
:1014F000372190FBF1F290FBF1F5A5F1800501FB9E
:1015000012041B3C02D56442012000E00020DFF8F9
:1015100098A080460027FA44AAF1BE0A0EE0E00730
:101520000AD03246684607EB470101230AEB8101E6
:1015300000F000FE8DE8070064107F1C002CEED147
:10154000194F7F44AE3F19E0E80715D007EB0410B0
:101550000DF1180A90E80E008AE80E00C068F0420B
:1015600001D1981908903246012306A903A800F07A
:10157000E1FD03AB83E807006D10641C002DE3D18F
:101580004FF0010332466946B8F1000F03A802D0BC
:1015900000F0A6FD01E000F0CDFDC9E90001C9F8A9
:1015A00008200AB0BDE8F0874C23000000487047CF
:1015B000640000207546FFF7F9FFAE460500694656
:1015C000534620F00700854618B020B5FEF750FEC0
:1015D000BDE820404FF000064FF000074FF0000834
:1015E0004FF0000B21F00701AC46ACE8C009ACE8B5
:1015F000C009ACE8C009ACE8C0098D4670470000DE
:1016000010B5FFF711FD001D10BD00BF791B0000D4
:1016100010B5FFF70DFD006810BD10B50446FFF7CB
:1016200007FD046010BD00002DE9FF4F1F464FF07D
:101630003C0987B04FF00042DDE9141001F10108C8
:10164000DDF858A002EA4050039000200590834640
:10165000054604460490B969461E08988847AAF1D1
:10166000010A0290BAF1000F3BDD02982E2815D036
:10167000102100F060FA00282EDB4FF0010B0599D5
:10168000014317D0B9F1000F0BDB4A46C11700F038
:101690003FFA05430C43A9F1040905E00120049039
:1016A0000BE008B145F0010501200590049820B930
:1016B000361D02E0049800B1361FB969089808F198
:1016C00001088847BBF1000FAAF1010A0290C9D0B6
:1016D0000999C1F80080C5E70298702808D0502801
:1016E00006D0F96908988847BBF1000F14D04FE085
:1016F000002002900120BBF1000F049009D0B969CD
:10170000089808F101088847AAF10109B9F1000F0A
:1017100007DCF969089888476FF001000BB0BDE855
:10172000F08F2B2804D02D280CD14FF0FF300490DF
:10173000B969089808F101088847A9F10109B9F1C8
:10174000000FE6DD411CE4D00A2100F0F4F9002886
:10175000DFDB029908F1010801EB810100EB410098
:101760000290B969089888470A2100F0E4F9099ABB
:10177000A9F10109B9F1000FC2F8008001DD0028CC
:10178000E7DAF969089888470499029800FB01662E
:1017900055EA040004D004F04041090002D006E0FC
:1017A000039898E0A40044EA9574AD00B61E04F0D6
:1017B0000041080002D16D196441761E159810F0A1
:1017C000240F03D04FF00B095C4803E04FF02809C9
:1017D0006FF07D008246564507DAAAEB0601894480
:1017E000B9F1410F01DD4FF0410901200021A9F1BC
:1017F000010200F08DF9024628400B4621400843C3
:1018000001D0012100E00021501E029143F1FF317F
:1018100028402140084301D0012000E00020029927
:10182000834651EA0B014FD0002108464FF00000DB
:10183000039900F4400039B100EB80004FF44001FF
:1018400000EBD07001EA60008015012802DD4FF046
:10185000FF3000E013D0401C36D0029860B3BBF1DB
:10186000000F0CD14A460120002100F051F9284018
:101870002140084301D0012000E00020E0B1012018
:101880004A46002100F044F9034640190A466141E6
:101890002D1A8C4111D3B9F1400F09DD159810F0C4
:1018A000240F02D0AAF1340603E0AAF1170600E0E3
:1018B000761C00254FF0004406E05B1E42F1FF322B
:1018C00020EA030521EA0204CAF10100B04206DA67
:1018D0001B49039808430190002000900EE0039AF2
:1018E000C4F3D321E80A0A43164940EA44500A43A4
:1018F0003146CDE90002684601F00FFB159810F063
:10190000240F0BD01598C00715D13868DDE90012F7
:10191000031D3B600068C0E900120CE002A86946A4
:1019200001F0F2FA1598C00705D13868029A011D36
:101930003960006802604046F0E6000002FCFFFFEC
:101940000000F07F0000F03F2DE9FF4F92461D465A
:1019500085B04FF00041DDE9124BDDE914727F1EC6
:1019600001EA4B50414940F0FF4940EA010800219B
:1019700022F020004928049102D04E2828D04CE0C3
:101980003BA0012607C88DE80700A9690698641CDA
:1019900088477F1E014606D41DF8060018B121F0C5
:1019A000200181420BD0E96906988847032E34D084
:1019B000082E32D06FF0010009B0BDE8F08F761C20
:1019C000032E01D0082EE0D1601CCAF80000DCE72D
:1019D000A9690698641C88477F1E2AD420F020003D
:1019E000412826D1A9690698641C88477F1E20D407
:1019F00020F020004E281CD1A9690698641C884755
:101A00007F1E48F4002849F48009CAF8004001D438
:101A1000282806D0E969069888475FEACB7012D07B
:101A200022E0A9690698641C88477F1E01D400281B
:101A300003DAE96906988847BCE72928F1D1641CD4
:101A4000CAF80040E9E71BF0240F07D02868049982
:101A5000031D2B600068C0E9001805E02868021D1E
:101A60002A600068C0F800902046A5E70000F07FDB
:101A7000494E46494E4954590000000010B50446ED
:101A8000AFF300802046BDE81040FEF7DCBB00004D
:101A90004FF0013C50F8042B51F8043B9A4221D1FD
:101AA000A2EB0C03934313EACC1317D150F8042B89
:101AB00051F8043B9A4215D1A2EB0C03934313EA6D
:101AC000CC130BD150F8042B51F8043B9A4209D1A6
:101AD000A2EB0C03934313EACC13DBD04FF00000CE
:101AE000704700BFD01A01BAB1FA81F101F01801B4
:101AF00022FA01F0CB40C1F12001DBB2C0B2C01A22
:101B00002CFA01F3D11A914311EAC311E6D17047BF
:101B1000B2F120030AD5C2F1200301FA02F120FA42
:101B200003F300FA02F041EA0301704700FA03F1FF
:101B30004FF0000070473A2800D2303820F02002E1
:101B4000412A01D3A2F13700884201D34FF0FF3080
:101B50007047000001491820ABBEFEE726000200D6
:101B600070475FEA400C08BF91F0000F4FEA8C23EA
:101B70004FEAC12243EA51514FEA1C5018BF00F509
:101B8000F0404FEA300018BF41F000415FEA6C5C62
:101B900000F02980BCF1FF3F08BF40F08040704753
:101BA000130C06BF12044FF0100C4FF0000C130E74
:101BB00004BF12020CF1080C130F04BF12010CF148
:101BC000040C930F04BF92000CF1020CD30F04BF5E
:101BD00052000CF1010C11464FF00002A0F11F0061
:101BE000A0EB0C00704711F0004F08BF704731F0B8
:101BF00000413FF4D5AF0B0C06BF09044FF0100CA9
:101C00004FF0000C0B0E04BF09020CF1080C0B0F77
:101C100004BF09010CF1040C8B0F04BF89000CF107
:101C2000020CCB0F04BF49000CF1010CCCF12003D6
:101C3000A0EB0C0022FA03F302FA0CF241EA0301D2
:101C400000F10100704720F07F4C80EA030023F090
:101C50007F47ACEB070303F57C5300F0004003F132
:101C6000FF032DE980494FEA154B09B44FEA1443AD
:101C700025EA0B4E24EA03480FF2042606EB13274D
:101C800049083E785FEA320203FB0667C7F50007A2
:101C900007FB06F64FEA54374FEAD64606F102062E
:101CA00007FB066CCCF1005C4FEA1C472CEA074CA2
:101CB00007FB06F40CFB06F504EB15464FEA9616F7
:101CC00034BF00204FF000404FEAD13706FB07FC3D
:101CD0004FEA1C4C0CFB0BF7D21B03FB0CF761EB20
:101CE00007010CFB0EF7B0EB074072EB17420CFB41
:101CF00008F734BFA2EB0742B2EB074261EB174192
:101D00004FEA0C444FEA910706FB07FC4FEA1C4CD4
:101D10000CFB0BF7B0EBC74072EB573203FB0CF731
:101D200034BFA2EBC742B2EBC74261EB57310CFBA9
:101D30000EF7B0EBC70072EB57720CFB08F734BF1D
:101D4000A2EBC702B2EBC70261EB5771039F4FEAE8
:101D5000816141EA921104EBCC044FEAD1374FEA9A
:101D6000826206FB07FC42EA90124FEA80604FEA6B
:101D70001C4C0CFB0BF7D21B03FB0CF761EB0701B0
:101D80000CFB0EF7B0EB074072EB17420CFB08F7A9
:101D900034BFA2EB0742B2EB074261EB17414FEAB7
:101DA0008C554FEA910704EB9C2406FB07FC4FEA95
:101DB0001C4C0CFB0BF7B0EBC74072EB573203FB2C
:101DC0000CF734BFA2EBC742B2EBC74261EB57310D
:101DD0000CFB0EF7B0EBC70072EB57720CFB08F769
:101DE00034BFA2EBC702B2EBC70261EB577115EB30
:101DF0004C254FEA816141EA92114FEA82624FEA33
:101E0000D13742EA901206FB07FC44F100044FEA86
:101E100080604FEA1C4C0CFB0BF7D21B03FB0CF74A
:101E200061EB07010CFB0EF7B0EB074072EB1742BA
:101E30000CFB08F734BFA2EB0742B2EB074261EBA1
:101E4000174115EB1C154FEA813141EA92414FEAE7
:101E5000823242EA90424FEA80304FEA0C7644F1F7
:101E6000000448EA03434EEA0B484FF0000EB2EB81
:101E7000080C71EB030724BF624639464EEB0E0E89
:101E80004FF0000B0018524149414BEB0B0BB2EBEA
:101E9000080C71EB03077BF1000B24BF6246394647
:101EA0004EEB0E0E4FF0000B0018524149414BEB28
:101EB0000B0BB2EB080C71EB03077BF1000B24BF9B
:101EC000624639464EEB0E0E51EA020718BF46F045
:101ED000010616EB0E7655F1000254F1000103D510
:101EE000BDE88901BDE80088BDE88901BDE800487A
:101EF000B619524141EB0101A3F101037047808003
:101F00007F7E7D7C7B7A7978777676757473727153
:101F100071706F6E6E6D6C6C6B6A6A69686867660B
:101F200066656464636362616160605F5F5E5E5D9D
:101F30005D5C5C5B5B5A5A59595858575756565511
:101F400055555454535352525251515050504F4F73
:101F50004F4E4E4D4D4D4C4C4C4B4B4B4A4A4A49C3
:101F60004949484848474747474646464545454406
:101F700044444443434343424242424141410000BE
:101F800046EA0646A3F570534FEA164646EA42561D
:101F90004FEAD22242EA415210B54FEAD121A3F1D1
:101FA000010300F02FF820F0004000F1020C00F0D7
:101FB000004701EB00501146BCF5006F40EA0700F6
:101FC00000D210BDBAF1000F0AD01CB503B44FF017
:101FD00004004FF004014FF000000FBCBDE81040BA
:101FE0004FF00001BBF1010FB9BF04484FF0FF31C2
:101FF0000348002140EA070010BD00BFFFFFEF7F4C
:102000000000F07F002B9C4630D477002BD01CB50D
:102010004FEA370703B44FF010004FF01001BAF148
:10202000000F06D0BCF1000FDCBF40F0080040F00C
:1020300008014FF000000FBCBDE810400BF1010B90
:10204000BBF1010F08BF5FEA170722BF12F10102BF
:1020500011F101014FF0004143F1000300F0004095
:1020600043EA00007047F9D35708D0E746EA06462E
:1020700013F1400F4FEA16461FDD13F1200FDFBFAB
:1020800016430A46002120335B42BED0C3F120072D
:1020900046EA064602FA07F74FEA164646EA0706F8
:1020A000C3F1200722FA03F201FA07F721FA03F13C
:1020B0004FF0000342EA0702A7E746EA020646EAB3
:1020C00006464FEA164646EA0106BCBF46EA064601
:1020D000360C4FF000034FF000024FF0000194E780
:1020E0002DE9804C9A46934670B491E8380007C8B1
:1020F00031EA400C48BF34EA430C03D5FFF7A3FD97
:10210000FFF780FFF0BCBDE8008C2DE9804C9A46BB
:10211000934670B491E8380007C831EA400C48BFD4
:1021200034EA430C03D5FFF78EFDFFF729FFF0BC1F
:10213000BDE8008C2DE9804C9A46934670B491E836
:10214000380007C810F0804F08BF13F0804F03D14C
:1021500000F01AF8FFF756FFF0BCBDE8008C2DE93F
:10216000804C9A46934670B491E8380007C810F046
:10217000804F08BF13F0804F03D100F005F8FFF740
:10218000FFFEF0BCBDE8008C20F07F4780EA030032
:1021900023F07F4C07EB0C03A3F57C5300F00040C9
:1021A000A3F1FE0392F0000F00F0B38095F0000F52
:1021B00000F077802DE901494FEA11404FEA1446BB
:1021C00021EA004800FB06FC24EA064708FB06F665
:1021D00007FB08F800FB07F718EB06484CEB164C1A
:1021E0004FEA124B18EB07484FEA15464CEB1740E5
:1021F00022EA0B4E0BFB06FC25EA06470EFB06F611
:1022000007FB0EFE0BFB07F71EEB064E4CEB164CC6
:102210004FF000061EEB074E4CEB174B18EB0B086C
:1022200040F1000018EB0E0B58EB000840F10000E5
:102230008F1A4FF000013CBFC943661B14BFB5EBBA
:10224000040C00213CBFC943F61B4FEA17444EEA79
:102250008E0E27EA04454FEA1C4704FB07622CEA6E
:10226000074C05FB07F70CFB05F604FB0CFC16EB13
:10227000074642EB174216EB0C4642EB1C421BEBA7
:10228000060658EB0202414146EA9E0601D5BDE82A
:102290000189B619524141EB0101A3F10103BDE8E7
:1022A00001894FEA14454FEA114724EA054621EA1D
:1022B000074C05FB07F406FB07F70CFB06F105FBD3
:1022C0000CFC11EB074144EB17444FEA124711EBAA
:1022D0000C4144EB1C4422EA074C05FB07F206FBC9
:1022E00007F70CFB06F605FB0CFC16EB074642EB6A
:1022F000174216EB0C4642EB1C456A1854F10001DC
:1023000048BF7047B619524141EB0101A3F10103E7
:10231000704795F0000F37D04FEA11424FEA14474B
:1023200021EA024624EA074C02FB07F106FB07F705
:102330000CFB06F402FB0CFC14EB074441EB1741C9
:102340004FEA154714EB0C4441EB1C4125EA074CBE
:1023500002FB07F506FB07F70CFB06F602FB0CFC7D
:1023600016EB074645EB174516EB0C4645EB1C42B2
:10237000121951F1000148BF7047B619524141EBA3
:102380000101A3F1010370474FEA14454FEA1147D9
:1023900024EA054621EA074C05FB07F106FB07F78F
:1023A0000CFB06F24FF0000605FB0CFC12EB07429B
:1023B00041EB174112EB0C4251EB1C4148BF7047F7
:1023C000921841EB0101A3F10103704700BFFEE742
:1023D000704772B600BFFEE7F8B502460B4600250F
:1023E000002400200021D5E0012606FA01F51E6830
:1023F00006EA0504AC4274D11E7906F00306012EEC
:1024000004D01E7906F00306022E13D190684F0007
:102410000326BE40B0434F00DE68BE4030439060AC
:10242000506801268E40B0431E79C6F300168E40D8
:10243000304350601E7906F00306032E09D0D068A1
:102440004F000326BE40B0434F009E68BE4030435D
:10245000D0601E7906F00306022E13D1CF0802F1D8
:10246000200656F827004E07F70E0F26BE40B04351
:102470004F07FF0E1E69BE403043CF0802F1200611
:1024800046F8270010684F000326BE40B0431E796F
:1024900006F003064F00BE40304310605E6806F44D
:1024A0004036002E75D000BF002600963B4E3668A1
:1024B00046F48046394F3E603E46366806F4804614
:1024C000009600BF00BF364E8F0856F827008E07D3
:1024D000370F0F26BE40B043324EB24202D1002623
:1024E00024E056E0304EB24201D101261EE02F4ECC
:1024F000B24201D1022619E02D4EB24201D103268B
:1025000014E02C4EB24201D104260FE02A4EB24212
:1025100001D105260AE0294EB24201D1062605E086
:10252000274EB24201D1072600E008268F073F0F51
:10253000BE4030431A4E8F0846F82700214E3068BF
:10254000A0435E6806F4803606B120431D4E30601D
:10255000361D3068A0435E6806F4003606B120439D
:10256000184E361D3060361D3068A0435E6806F494
:10257000801606B12043134E08363060361D306891
:10258000A0435E6806F4001606B120430D4E0C36DB
:102590003060491C1029FFF427AFF8BD44380240D1
:1025A00008380140000002400004024000080240D8
:1025B000000C0240001002400014024000180240CB
:1025C000001C0240003C01400AB1816101E00B04A3
:1025D000836170470348006803490978084401494A
:1025E00008607047040000200C00002010B50D4862
:1025F000006840F400700B4908600846006840F429
:10260000806008600846006840F48070086003201D
:1026100000F092F80F2000F007F800F02BF80020EF
:1026200010BD0000003C024070B504460E48007822
:102630004FF47A71B1FBF0F00C490968B1FBF0F589
:10264000284600F0B3F808B1012070BD102C07D265
:1026500000222146501E00F031F80548046001E0D8
:102660000120F2E70020F0E70C000020100000201D
:102670000800002008B500BF002000900E48006848
:1026800040F480400C4908600846006800F480402F
:10269000009000BF00BF00BF00200090081F00682E
:1026A00040F08050091F08600846006800F0805024
:1026B000009000BF00BF08BD443802402DE9F05F24
:1026C00080460D461646002700F0FCFA07463946BC
:1026D0002A46334601F00700C0F1070ABAF1040F99
:1026E00002D94FF0040A01E0C0F1070AD14600F117
:1026F000040ABAF1070F02D24FF0000A01E0A0F17C
:10270000030AD4464FF0010A0AFA09FAAAF1010AAB
:102710000AEA020A0AFA0CFA4FF0010B0BFA0CFB58
:10272000ABF1010B0BEA030B4AEA0B0421464046CE
:1027300000F0D0FABDE8F09F00BF00F00702064BA2
:1027400019684FF6FF031940044B0B4343EA02217B
:10275000014B196000BF70470CED00E00000FA0566
:1027600001480068704700001000002000B5FFF726
:10277000F7FF04490968C1F38221034A515CC8404C
:1027800000BD000008380240A037000800B5FFF780
:10279000E7FF04490968C1F34231034A515CC8406C
:1027A00000BD000008380240A037000870B504469C
:1027B0002546681EB0F1807F01D301200FE0681E1E
:1027C0004FF0E02148610F214FF0FF3000F082FA16
:1027D00000204FF0E021886107200861002070BDD3
:1027E00010B504460CB9012010BDA06900B100E08D
:1027F00000BF94F83D0028B9002084F83C00204632
:1028000000F028F8242084F83D002068C06820F4F7
:1028100000502168C860204600F0FAF8206800697E
:1028200020F49040216808612068406920F02A0067
:10283000216848612068C06840F400502168C86081
:1028400000202064202084F83D0084F83E00002011
:10285000CAE7000010B586B00446142101A8FDF7B0
:10286000C3FE1B49206888422FD100BF0020009082
:102870001848006840F400301649086008460068AF
:1028800000F40030009000BF00BF00BF00200090A7
:1028900010481038006840F001000E4910390860F7
:1028A0000846006800F00100009000BF00BF0C2047
:1028B0000190022002900020039003200490072042
:1028C000059001A90448FFF787FD06B010BD000080
:1028D00000440040403802400000024000BFFEE7D4
:1028E00000B587B0142102A8FDF77EFE00BF0020CE
:1028F00001902448006840F08000224908600846A2
:10290000006800F08000019000BF00BF00BF002001
:1029100001900846006840F0010008600846006821
:1029200000F00100019000BF00BF00BF0020019037
:102930000846006840F0080008600846006800F09B
:102940000800019000BF00BF00224FF470410E4804
:10295000FFF73AFE0120029000200390049002A9A4
:102960000A48FFF739FD4FF47040029001200390B0
:1029700000200490059002A90348FFF72DFD07B041
:1029800000BD000030380240000C02400000024050
:1029900010B50B480B4908604FF4E1304860002146
:1029A00008488160C16001610C21416100218161A1
:1029B000C161FFF715FF08B1FFF70BFD10BD000067
:1029C000004400401400002000BFFEE700BFFEE707
:1029D0007047704710B5FFF7FDFD064800684FF4DB
:1029E0009671B0FBF1F201FB120010B9012002490F
:1029F000087010BD0400002000000020034800689B
:102A000040F47000014908607047000088ED00E064
:102A10002DE9F84F04462068006920F44050E16831
:102A20000843216808612169A06808436169084377
:102A3000E169084300902068C06849F20C6188434E
:102A4000009908432168C8602068406920F44070FC
:102A5000A16908432168486176492068884203D00B
:102A600075492068884203D1FFF790FE814602E055
:102A7000FFF77CFE8146E069B0F5004F6CD1022083
:102A80006168A0FB015003461920A9FB00700146B4
:102A90002A463846FDF7FEFB6421B0FBF1F04FEA11
:102AA000001A02206168A0FB01510B461920A9FB06
:102AB00000712A463846FDF7EDFB83460220616827
:102AC000A0FB015003461920A9FB00712A46384695
:102AD000FDF7E0FB6421B0FBF1F000EBC00101EB7E
:102AE0000010ABEB8000322101EBC0006421B0FB91
:102AF000F1F000F0F8000AEB400A02206168A0FB48
:102B0000015003461920A9FB007001462A463846A9
:102B1000FDF7C0FB834602206168A0FB015003461D
:102B20001920A9FB00712A463846FDF7B3FB642142
:102B3000B0FBF1F000EBC00101EB0010ABEB80004B
:102B4000322101EBC0006421B0FBF1F000F007007E
:102B50005044216888606AE004206168A0FB01504D
:102B600003461920A9FB007001462A463846FDF7A6
:102B700091FB824604206168A0FB015003461920A6
:102B8000A9FB007001462A463846FDF783FB642105
:102B9000B0FBF1F000EBC00101EB0010AAEB8000EC
:102BA000322101EB00106421B0FBF1F000F0F00ADB
:102BB00004206168A0FB017003461920A9FB0051A5
:102BC0003A462846FDF766FB6421B0FBF1F00AEBBC
:102BD000001A04206168A0FB01510B461920A9FBD3
:102BE00000712A463846FDF755FB8346042061688C
:102BF000A0FB015003461920A9FB007001462A469C
:102C00003846FDF747FB6421B0FBF1F000EBC00153
:102C100001EB0010ABEB8000322101EB00106421CE
:102C2000B0FBF1F000F00F00504421688860BDE86F
:102C3000F88F0000001001400014014005480068B2
:102C400000F0200018B10348001D006870474FF4E1
:102C50008070FBE70044004000BF0549096801F0AF
:102C600080010029F9D0C1B2014A121D11607047DC
:102C70000044004010B50346002404E02146641CD3
:102C8000585CFFF7E9FF185D0028F7D110BD00BFC1
:102C9000FEE703B401984100009850EAC12018BF34
:102CA00004204A0D18BF40F0010040F2FF72B2EB61
:102CB000515F08BF40F00200012808BF052002B0A4
:102CC0007047000002480068C0F30220704700000F
:102CD0000CED00E010B5002804DB0A07130E054ACE
:102CE000135406E00A07140E034A00F00F031B1FDB
:102CF000D45410BD00E400E018ED00E00000000036
:102D000030B52DED048B81B0B0EE408AF0EE608AD4
:102D10006A4651EC180B00F05BF900989FED329B6E
:102D20007E300090002821DC53EC192B51EC180B5D
:102D300000F084FA1AD0002140F608004FF000009D
:102D4000044651EC180B00F033FA08EE100A40F676
:102D5000080004EA00014FF00000B5EEC08AF1EE71
:102D600010FA04BF0220FEF758FC2DE00098FF285F
:102D700030DB002108464FF0000000F4400553EC22
:102D8000192B51EC180B00F0CFFB8CBF0024012451
:102D90000220FEF742FC9FED168A4DB1002C0CBFBD
:102DA0004FF400004FF48000A84218BF9FED118A35
:102DB000042108464FF00000002C01BFB1EE480A84
:102DC00001B0BDEC048B30BDB0EE480A01B0BDECE3
:102DD000048B30BD51EC180B00F0EAF901B000EEA5
:102DE000100ABDEC048B30BD0000000000000000A4
:102DF0000000807FFFFF7F7F30B540F2FF742DED34
:102E0000048BF0EE608A18EE901A85B0B0EE408A1E
:102E10009FED2B9B05468DED008B34EA115147D079
:102E200053EC192B51EC180B00F008FA40D02A464D
:102E300051EC180B00F060FC41EC180B18EE900AF6
:102E40008DED008B34EA10501CD053EC192B51EC53
:102E5000180B00F0F3F92BD10220FEF7DEFB00F097
:102E600043F810EE901A18EE900A8DED020B8DEDDE
:102E7000008B61F31E0003909DED020B05B0BDECCD
:102E8000048B30BD0220FEF7C8FB00F01DF810EEE9
:102E9000901A18EE900A8DED020B8DED008B61F308
:102EA0001E0003909DED020B05B0BDEC048B30BD00
:102EB00005B0B0EE480AF0EE680ABDEC048B30BDF8
:102EC00000000000000000009FED050B10B553EC62
:102ED000102B51EC100B00F029FA41EC100B10BD37
:102EE00000000000000000709FED050B10B553ECD2
:102EF000102B51EC100B00F019FA41EC100B10BD27
:102F0000000000000000001010B5044691ED000B19
:102F1000FFF7F6FE84ED000A10BD10B5044690EDF3
:102F2000000B0846FFF768FF84ED000B10BD30383A
:102F30000A2801D2012070470020704730B52DEDDE
:102F4000028B85B005460C4603A802AB04AA1DA15E
:102F500000902846FDF788FA9DF808002B2806D136
:102F60009DED040ADDED030A30EE208A23E09DF892
:102F700008002D2806D19DED040ADDED030A30EE90
:102F8000608A18E09DF808002A2806D19DED040A01
:102F9000DDED030A20EE208A0DE09DF808002F28C1
:102FA00006D19DED040ADDED030A80EE208A02E0E1
:102FB0004FF4CA702060B0EE480A05B0BDEC028B39
:102FC00030BD000025662025632025660000000036
:102FD00010B582B01446CDE900010023009A2360A9
:102FE000194B21F0004098422ADA024328D0B0F56C
:102FF000801FA8BF226810DA9FED150B53EC102B31
:103000009DED000B51EC100B00F090F9CDE90001A3
:103010006FF0350221F0004022600F4B6FF31E511C
:1030200003EB20501044206041F0FF5040F000506E
:1030300001909DED000B00BF02B051EC100B10BDD4
:103040009DED000BF8E700000000F07F000000009D
:10305000000000000000504302FCFFFF10B51449BF
:103060000978312900D110BDFFF7E8FDB0F5807F68
:1030700000D1F8E70F490B780978491C0D4C2170F5
:103080000D49C854214609780A2903D10121084A6B
:103090001170E8E73D2803D13121054A1170E2E7BC
:1030A00003490978312900D1DDE700BFDBE70000E3
:1030B0000200002001000020580000202DED028BAE
:1030C0008CB0FFF793FAFFF70BFCFFF761FC0020D1
:1030D0000B909FED190A10EE104A2CE0FFF7BEFF8F
:1030E00016480078312826D11548FFF7C3FD15A0F2
:1030F000FFF7C0FD0A22124908A8FDF743FA0BA901
:103100000F48FFF71BFF10EE104A204600F042FA6E
:1031100041EC180B8DED008B08AA0CA103A8FDF75C
:1031200031F903A8FFF7A6FD00200A4908703020F6
:103130000249087000BFD1E7000000000200002033
:10314000580000206161610A0D00000025732566AA
:103150000A0D00000100002010B500290AD00878EF
:10316000002807D005487844FEF792FC002801D0DB
:10317000002010BD0248784410BD00000607000082
:10318000FE06000010B500290AD00878002807D0F4
:1031900005487844FEF77CFC002801D0002010BDD3
:1031A0000248784410BD0000F6060000EE0600005C
:1031B00021F00042A2F16052B2F5801F01F00043FD
:1031C00028BFD2F17F6C0BD95FEA001C43EAC20230
:1031D00042EB507018BF704728BF20F001007047C5
:1031E000B2F5801FBCBF184670474FEA410C1CF572
:1031F000001F02D2084600F043BA70B500F040F953
:1032000000000089FFF7F6BF4FF00040A0F58000F6
:103210007047000002494FF0000000F03BBA00BFC9
:103220000000F87F491058BFC1F140415B1058BF02
:10323000C3F140438B42EFF30080704751EA030C27
:1032400017D41CF5801F58BFBCF5801F00F1068005
:10325000994218BF704708BF9042704707D711F5D1
:10326000801F58BF13F5801F19D4994270478942B7
:1032700070471CF5801F08D5BCF5801FF7D58B4221
:1032800018BF704708BF824270474FF4001C1CEB08
:10329000410F38BF1CEB430F01D28B42704770B512
:1032A00000F0EEF8922449004FF000514FF08053A7
:1032B000FFF7B8BF51EA030C17D41CF5801F58BFA5
:1032C000BCF5801F00F10680994218BF704708BF07
:1032D0009042704707D711F5801F58BF13F5801F24
:1032E00019D499427047894270471CF5801F08D550
:1032F000BCF5801FF7D58B4218BF704708BF8242CC
:1033000070474FF4001C1CEB410F38BF1CEB430F00
:1033100001D28B42704770B500F0B2F89224490098
:103320004FF000514FF08053FFF77CBFDFF848C1EA
:1033300070B51CEA111E1EBF1CEA13159EEA0C0F85
:1033400095EA0C0F00F06F8081EA030423EA4C1326
:103350004EEAD47E21EA4C1141F4801143F48013EB
:10336000AE44A1FB024CA0FB0365AEF17F7E361993
:1033700055EB0C05A1FB034C4CF10003A0FB021C18
:1033800016EB0C06654153F10003094218BF46F0E5
:10339000010613F4007F0BD14FEA03314FEA0530E9
:1033A000340341EA155140EA16506FF003020AE077
:1033B0004FEAC3214FEAC520F40241EA555140EAE1
:1033C00056506FF0020202EB2E4201EB025585EAE5
:1033D000CE710AD05FEA440C18BF24F0004450F1CB
:1033E000000041F1000120EAD47040F2FE7C624509
:1033F00000D270BDA84214BF4FF080444FF040444B
:10340000002E08BF0024BEF1806FA8BFA1F1C0410B
:10341000BDE8704080F282804FF0000001F1C041B1
:1034200001F0004170479EEA0C0F0CEA131518BF1B
:1034300095EA0C0F06D04FF0000081EA030E0EF063
:10344000004170BD00F01CF88900013E00F007B893
:1034500000F009B84FEA430C5FEA5C5C08D081EAEF
:10346000030100F05BB84FEA410C5FEA5C5CF6D107
:103470004FF00000014970470000FF070000F87F8F
:103480000EF1020E2EF0030E5EF8046B364205D4E8
:10349000012A43EB030515F5001F12D8012841EB63
:1034A000010C1CF5001F0CD80ED14FEAD17C15F58C
:1034B000001F0CEB4C0C0CF1020C08BF4CEBD37C46
:1034C00004E04FF0080C01E04FEAD37C0CEB4C0514
:1034D00026FA05F606F00706B6F1040C06D20EEB46
:1034E000860CBDE870404CF0010C6047DFE80CF042
:1034F000090B02024FF000414FF00000A1F500213E
:1035000070BD19461046012851EB010418BFD4F5CF
:10351000001484BF002001F0004170BD0808A0F530
:1035200000114FEA3101704753EA010C17D41CF522
:10353000801F58BFBCF5801F00F106808B4218BF6A
:10354000704708BF8242704707D713F5801F58BFE6
:1035500011F5801F19D48B4270479B4270471CF5B0
:10356000801F08D5BCF5801FF7D5994218BF70475A
:1035700008BF904270474FF4001C1CEB430F38BF4C
:103580001CEB410F01D2994270470FB40CBC03BC35
:10359000FFF7C1BE43004FEAD30C4FEA3C0C434057
:1035A0001FBF40070CF1605113F0FE4F70471CF035
:1035B000006F03D100200CF0004170470CF0004375
:1035C00043EA507010B540EACC0000F00EF800BF9E
:1035D000000000924FEA0001FFF7A0BF4FF000414A
:1035E0004FF00000A1F5002170470EF1020E2EF001
:1035F000030E5EF8044B244204D44FEA4102B2F1B8
:103600007F4F11D84FEA4003B3F17F4F0CD80ED152
:103610004FEAD07CB2F17F4F0CEB4C0C0CF1020C5A
:1036200008BF4CEBD17C04E04FF0080C01E04FEAFE
:10363000D17C0CEB4C0324FA03F404F00704B4F13E
:10364000040C06D20EEB840CBDE810404CF0010CCB
:103650006047DFE80CF0070802024FF00040A0F5D9
:10366000800010BD0846420018BFD2F1807288BFAA
:1036700000F0004010BD4FF04070E1EE100A7047BE
:10368000FF2141EAD050C00570474FF0000070475D
:10369000FDF7ADB80CF00F03092B08BF082000F0B0
:1036A0005F800A2B0BD0082B18BF704708BF1CF097
:1036B000400F0AD04FF000004FF0000170471CF09F
:1036C000400F18BF4FF0004070471CF0100F08D09B
:1036D00020F0704300F07F4242EAD3014FEA43708A
:1036E000704700F0604021F07F4242EA000201F0A2
:1036F0007F4040EA727070474FF0FF0C4CF4E06C72
:103700001CEA11531CBF9CEA030C9445C2BFDA4269
:1037100001EB02517047002B0DD0BCF1000F0FD010
:10372000002A01F00041A4BF41F0E04141F07F6177
:103730004FF00000704701F000414FF0000070476B
:1037400050EA01334FF09B0C18BF4CF0806C7FF4B3
:1037500061AD7047FDF7DCBAFDF766BFFEF7F4B860
:103760001CF4801F11D01CF4E02F03D06FEACC3181
:10377000490070474FF04050EFF3008222F0704252
:1037800042EA000282F3008870474FF00000704761
:103790000000000000000000010203040607080901
:1037A000000000000102030402400000000000A02D
:1037B0000000000005400000000000C800000000FC
:1037C0000C4000000000409C000000001940000078
:1037D0000020BCBE0000000034400000BFC91B8EAA
:1037E00000000004B5400000504BCFD06607E2CF88
:1037F000010000006C4100003E8251AADFEEA734B8
:1038000001000000D9420000DCB5A0E23A301F9769
:10381000FFFFFFFFB4450000FD25A0C8E9A3C14F8D
:10382000FFFFFFFFFF3F00000000008000000000DE
:10383000FF3F0000000000800000000098390008F1
:103840000000002014000000C4010008AC3900088A
:1038500014000020B4060000E00100080000000091
:103860000000F07FFFFFFFFFFFFFEF7F1C00000065
:1038700043000000F8FFFFFF0C0000000E000000F6
:103880000F0000002E0000001001000043000000A7
:10389000F8FFFFFF00404040404040404040414171
:1038A0004141414040404040404040404040404015
:1038B00040404040400502020202020202020202AF
:1038C00002020202022020202020202020202002AC
:1038D000020202020202909090909090101010103C
:1038E00010101010101010101010101010101010D8
:1038F000020202020202888888888888080808086C
:103900000808080808080808080808080808080837
:10391000020202024000000000000000000000005F
:103920000000000000000000000000000000000097
:103930000000000000000000000000000000000087
:103940000000000000000000000000000000000077
:103950000000000000000000000000000000000067
:103960000000000000000000000000000000000057
:103970000000000000000000000000000000000047
:103980000000000000000000000000000000000037
:1039900000000000000000000000300000000000F7
:0C39A00010000000010000000024F400F2
:040000050800018965
:00000001FF
